:020000040000FA
:06000000B2EF02F0120055
:020006001200E6
:0600080015EF02F01200EA
:02000E000000F0
:020010000000EE
:050012000102040820BA
:080018008DEF02F01200BFD8C9
:1000200042E8016A026AD890025002E6050E025CBC
:100030002DE2015008E102EBE9FFEA6AE9BEEA6855
:10004000BAD8EF5017E0010E016E02EBE9FFEA6A41
:10005000E9BEEA68B0D8EF50B3D802EBE9FFEA6A2C
:10006000E9BEEA68140EE926000EEA22E552E750DE
:10007000EF6E0AD002EBE9FFEA6AE9BEEA68140E05
:10008000E926000EEA22EF6A022ACDD743E9E7CF3C
:10009000D9FF120084D841E8040E016E013419E240
:1000A00001EBE9FFEA6AE9BEEA6885D8EF2AEFCFFB
:1000B00028F00A0E0001285D0CE30A0E286F01EB00
:1000C000E9FFEA6AE9BEEA6876D82851EF5E0106E0
:1000D000E5D77ED064D841E8016A050E015C09E2EB
:1000E0000150EA6A1A0FE96E000EEA22EF6A012A4D
:1000F000F4D76ED054D846E88B94ECDF026A0A0E2F
:10010000025C2EE2B40EE66EE66AD950030FE66E8C
:10011000DACFE6FF51EC01F044E9016A050E015C1B
:1001200015E20A0EE66E01500224E66E5AEC02F069
:1001300041E9E75045D80150EA6A140FE96E000E14
:10014000EA22E552E750EF6E012AE8D7D950030FB3
:10015000E66EDACFE6FF6CEC01F042E9022ACFD777
:100160005EDF47E9E7CFD9FF120019D844E880B82D
:1001700010D0110E32D88B8418D86CEC01F042E903
:10018000120E2BD88B9411D86CEC01F042E982DF6F
:1001900002D082A29FDF45E9E7CFD9FF1200D9CF75
:1001A000E6FFE1CFD9FF81E91200D950010FE66ED9
:1001B000DACFE6FF12001A0EE926000EEA2212003C
:1001C000EA6A0A0FE96E000EEA22EF50E66E1200AC
:1001D00026DF42E9E7CFD9FF1200E66EE66AE5DFE7
:0801E00051EC01F044E91200AA
:0801E8000300120000001F00DB
:1001F0000000050000007E0500000A0000000A0063
:0E02000000000E0000002C00000004000000B2
:02020E00FF00EF
:100210001200A2D882E944E800EB28F00001296B23
:100220006FD82851026E2951036E2A51046E2B514A
:10023000056E75D803E0000188D8FEE17BD801E0A7
:10024000E6DF025000012C5D03502D5904502E5959
:1002500005502F59F6E345E9E7CFD9FF12007CD8C6
:1002600083E944E87ED82851036E2951046E2A514F
:10027000056E2B51066E53D803E0000166D8FEE1EF
:1002800059D801E0C4DF035000012C5D04502D5902
:1002900005502E5906502F59F6E345E9E7CFD9FF0F
:1002A00012005AD885E93BD803E000014ED8FEE1A0
:1002B00041D801E0ACDF55D802EBE9FF03EBEAFFE0
:1002C00028C0EEFF29C0EEFF2AC0EEFF2BC0EEFFD4
:1002D00041E9E7CFD9FF12003FD883E900EBE9FFFE
:1002E00001EBEAFFEE5000012C5DEE502D59EE506F
:1002F0002E59EE502F59F2E341E9E7CFD9FF120012
:100300002A6B2B6B2C0EE96E000EEA6EEE5028273E
:10031000EE502923EE502A23EE502B231200180E04
:100320001F0B2CC028F02DC029F02EC02AF02FC0A2
:100330002BF01200800E00012817296B2A6B2B6B03
:10034000285129112A112B111200D8902B332A334E
:1003500029332833E8061200D9CFE6FFE1CFD9FFD1
:10036000120000EB28F001EB29F0000180EF01F012
:10037000E80EF66E010EF76E000EF86E0001090031
:10038000F550056F0900F550066F03E1056701D0D0
:100390003DD00900F550006F0900F550016F0900CC
:1003A000F550026F09000900F550E96E0900F5509B
:1003B000EA6E090009000900F550036F0900F550C5
:1003C000046F09000900F6CF07F0F7CF08F0F8CF67
:1003D00009F000C0F6FF01C0F7FF02C0F8FF0001FE
:1003E000035302E1045307E00900F550EE6E0307E2
:1003F000F8E20407F9D707C0F6FF08C0F7FF09C005
:0E040000F8FF00010507000E065BBFD71200D3
:02040E008A68FA
:10041000936A010E896ED00E926E0001196B070E61
:10042000CA6ECB689D829F821200DACFE4FFE9CFCB
:10043000E4FFEACFE4FFE6529EA218D0896A0001E9
:10044000192B050E195D01E3196B1951EA6A140F96
:10045000E96E000EEA22EF508A6E1951EA6A1F0F08
:10046000E96E000EEA22EF50896E9E92A1A20BD097
:10047000FC0EB36E230EB26E00012C2B000E2D234A
:100480002E232F23A192E552E5CFEAFFE5CFE9FF26
:06049000E5CFDAFF1100C8
:0A04960042E8D9CFE6FFDACFE6FF17
:1004A000E1CFD9FFE2CFDAFF86E9036A1200F3DF7A
:1004B000038003D0F0DF01D00382026A080EE76EEA
:1004C000D890013602360050025C02E3026E012A27
:1004D000E72EF7D703B2120003B081EB00F003A0C0
:1004E00082EB00F0E552E5CFDAFFE7CFD9FF43E931
:0204F0001200F8
:0E04F200F29ED08E720ED36E110EB16EA082ED
:10050000A28207EC02F0F28CF28E9288949494828C
:100510007AEC00F0B5EC00F0FDD7D8CFE4FFE0CFE7
:10052000E4FFE46EDACFE4FFE6529EBA9E9AF0B2A0
:10053000F092E552E5CFDAFFE550E5CFE0FFE5CFF9
:04054000D8FF1000D0
:0C054400000EF36E00EE00F0080E01D86F
:100550001200EA6002D0EE6AFCD7F350E9601200A4
:04056000EE6AFCD76C
:0C05640013EE00F023EE00F0F86AB8EC93
:0E05700001F003EC00F079EC02F0FBD7120072
:02057E007E24D9
:08058000BABCE4DCDE34FEFC31
:020000040030CA
:10000000FF08FF1EFF81C1FFFFFFFFFFFFFFFFFF94
:00000001FF
